:020000040800F2
:10000000B009002091010008452700084D1E000896
:100010004127000815060008B13100080000000063
:10002000000000000000000000000000312800086F
:100030004D0B000800000000492700083528000883
:10004000AB010008AB010008AB010008AB010008E0
:10005000AB010008AB010008AB010008AB010008D0
:10006000AB010008AB010008510B0008AB01000810
:10007000AB010008AB010008AB010008AB010008B0
:10008000AB010008AB010008AB010008AB010008A0
:10009000AB010008AB010008AB010008AB01000890
:1000A000AB010008AB010008AB010008AB01000880
:1000B000AB010008AB010008AB010008AB01000870
:1000C000AB010008AB010008AB010008AB01000860
:1000D000AB010008AB010008AB010008AB01000850
:1000E000AB010008AB010008AB01000800F002F80A
:1000F00000F03FF80AA090E8000C82448344AAF183
:100100000107DA4501D100F034F8AFF2090EBAE880
:100110000F0013F0010F18BFFB1A43F0010318473B
:10012000EC3300000C340000103A24BF78C878C1CA
:10013000FAD8520724BF30C830C144BF04680C60ED
:10014000704700000023002400250026103A28BF35
:1001500078C1FBD8520728BF30C148BF0B60704739
:10016000752900F04B80002070471FB51FBD10B5EA
:1001700010BD00F0BCF91146FFF7F7FF03F01AF8C5
:1001800000F0DAF903B4FFF7F2FF03BC00F0E2F984
:100190000948804709480047FEE7FEE7FEE7FEE71B
:1001A000FEE7FEE7FEE7FEE7FEE7FEE70448054957
:1001B000054A064B7047000039280008ED0000088A
:1001C000B0030020B0090020B0050020B0050020D9
:1001D0000FB41CB5084B06AA7B44694600900598ED
:1001E00000F06DF904460020694600F07BF92046D6
:1001F0001CBC5DF814FB0000090300002DE9F04170
:100200000646002410687529314616A510D0AFF3B4
:100210000080002802DA404213A507E031688A070F
:1002200001D512A502E0490704D511A5012401E07A
:10023000AFF3008000210A2206F1240709E0B0FB99
:10024000F2FCB0FBF2F302FB1C003030785418468D
:10025000491C0028F3D123462A463046BDE8F04128
:1002600000F0CFB8000000002D0000002B000000BF
:10027000200000002DE9F05F894604464FF0000A97
:10028000DFF874B1FB44C0F820A02046E16888473D
:10029000002874D0252806D0D4E901219047206A8F
:1002A000401C2062F1E700265F462046E16888474F
:1002B0002028054607DB312D05D2781910F8200CCF
:1002C00008B10643F1E7B00701D526F00406C4F8EB
:1002D0001CA00027C4F818A02A2D09D0284603F036
:1002E000DCF838B304EB8708303DC8F8185019E043
:1002F00059F8041B204604EB87029161E1688847A6
:10030000012F054618D1E069002820DA26F02006E2
:100310001DE0D8F8180000EB800005EB40003038F5
:10032000C8F818002046E1688847054603F0B5F88C
:100330000028EED1012F0AD02E2D08D12046E168E9
:1003400088477F1C0546022F46F02006C4DBA069C3
:10035000002803DA404246F00106A061F00701D010
:1003600026F010066C2D0BD0682D09D04C2D39D0FD
:100370006A2D35D0742D35D07A2D33D016E038E083
:10038000E1682F4620468847B842054609D16C2FC0
:1003900026D04FF48060E168064320468847054632
:1003A00004E06C2F1AD04FF4807006430DB3A5F112
:1003B0004100192802D8203546F400664A462946ED
:1003C000204626604E46FFF7CBFE80B101280BD0B9
:1003D000F61D26F0070000F1080956E74020E4E783
:1003E0008020D8E70020D6E706F104094DE728462B
:1003F00052E7206ABDE8F09F203200007047704746
:1004000070472DE9F0470D4699469246044600F1A3
:1004100024080168880604D5E06921F010012160F4
:1004200000E00120A84201DD471B00E00027A16990
:100430007A1902EB0900081AA0612078C00602D4DC
:100440002046AFF30080002608E0D4E901211AF825
:1004500006009047206A401C761C20624E45F4DB63
:100460002078C0060AD52046AFF3008006E0D4E924
:10047000012130209047206A401C2062381EA7F1DD
:100480000107F4DC07E0D4E9012118F805009047E2
:10049000206A401C2062281EA5F10105F3DC2046DD
:1004A000AFF300802078000602D50220BDE8F08777
:1004B0000120FBE701694A1C02610878704700B51A
:1004C0008FB0CDE901310021059105497944CDE98D
:1004D000031011466846FFF7CDFE0FB000BD0000C7
:1004E000E5FFFFFF0A6802F8010B0A6070477546D6
:1004F00000F02CF8AE4605006946534620F0070090
:10050000854618B020B5FFF751FEBDE820404FF0FA
:1005100000064FF000074FF000084FF0000BAC460C
:10052000ACE8C009ACE8C009ACE8C009ACE8C00957
:1005300021F007018D46704710B50446AFF30080E7
:100540002046BDE81040FFF71DBE00000048704780
:100550001000002001491820ABBEFEE72600020073
:10056000704700000160828070470000B0B504460B
:100570000068A1880022A27100F022FC68B9012560
:100580002089E57101302081012000F0E5FA206822
:10059000A18800F015FC0028F2D0254615F8070FB9
:1005A00080B300BF2068A18800F00AFC012819D19F
:1005B000608901306081012000F0CEFA6089B0F5D9
:1005C000967FEFD92089A0F115018908F4291BD95C
:1005D000B0F57A7FE6D90020287128600320A07149
:1005E000B0BD00BF2068A18800F0EAFB00284FF0F2
:1005F000000018BFB0BD0221286028710220A1713F
:10060000B0BD00BF0020B0BD0020287128600120CF
:10061000A071B0BDFEE7000070B540F2A006C2F2C6
:10062000000606F10C00FFF7A1FF40F20005C2F240
:10063000000528B12878022808D1307803303070BE
:1006400006F11800FFF792FF60B919E0A8780130B1
:10065000C1B2032988BF0120A87006F11800FFF776
:1006600085FF68B12878022804D1307803383070CB
:1006700006E000BFA8780138010608BF0320A87073
:1006800040F60004C4F201042046082100F098FB63
:1006900020B90120002128703180A8702046042153
:1006A00000F08EFB002804BF01207070287802281B
:1006B00002D0A87802F05CFB2046042100F080FB09
:1006C000297881F001010843B0FA80F0400970BD3B
:1006D00070B582B00446C07A1826002818BF0120E1
:1006E0004FEAC00505F1040008BF10268DF804008C
:1006F000012000F031FA301D8DF8060001208DF840
:10070000055000F029FA206821798DF807604FF430
:100710007A7601AA0423009600F020FC052000F060
:100720001BFA02B070BD00002DE9F04182B0044612
:1007300008982160A07140F60640C2F61400C4F883
:1007400007000820E07232202271637100F004FA81
:10075000E07A3825002808BF30252E1D01203827D3
:100760008DF8046000F0F8F901208DF805508DF83F
:10077000066000F0F1F9206821794FF47A7801AA37
:1007800004238DF80750CDF8008000F0E7FBE07AF5
:100790003826002808BF3026351D01208DF804506A
:1007A00000F0DAF901208DF805608DF8065000F0B0
:1007B000D3F92068217901AA04238DF80760CDF8C8
:1007C000008000F0CBFB052000F0C6F9E07A282578
:1007D000002808BF302707F1040008BF20258DF846
:1007E00004000120282600F0B7F9281D8DF8060026
:1007F00001208DF8057000F0AFF92068217901AA79
:1008000004238DF80750CDF8008000F0A7FB0520E9
:1008100000F0A2F9E07A2825002818BF012008BFBF
:100820002025C700281D8DF80400012000F094F950
:10083000381D8DF8060001208DF8055000F08CF968
:100840002068217901AA04238DF80770CDF8008073
:1008500000F084FB052000F07FF9E079E27A0101E5
:1008600020F00F0501F10807002A14BF0835070121
:10087000281D8DF80400012000F06EF9381D8DF858
:10088000060001208DF8055000F066F920682179F6
:1008900001AA04238DF80770CDF8008000F05EFBFC
:1008A000207AE27A010120F00F0501F10807002A01
:1008B00014BF08350701281D8DF80400012000F041
:1008C0004BF9381D8DF8060001208DF8055000F019
:1008D00043F92068217901AA04238DF80770CDF827
:1008E000008000F03BFB607AE27A010120F00F0506
:1008F00001F10807002A14BF08350701281D8DF8EB
:100900000400012000F028F9381D8DF806000120B0
:100910008DF8055000F020F92068217901AA042300
:100920008DF80770CDF8008000F018FBA07AE27A0D
:10093000010120F00F0501F10807002A14BF083556
:100940000701281D8DF80400012000F005F9381D6D
:100950008DF8060001208DF8055000F0FDF82068A4
:10096000217901AA04238DF80770CDF8008000F0EA
:10097000F5FAE07A1827002818BF01204FEAC005D1
:1009800005F1040008BF10278DF80400012000F0D5
:10099000E3F8381D8DF8060001208DF8055000F0B1
:1009A000DBF82068217901AA04238DF80770CDF8BF
:1009B000008000F0D3FAE07A00280CBF2026012046
:1009C000C500281D8DF80400012000F0C5F8301D79
:1009D0008DF8060001208DF8055000F0BDF8206864
:1009E000217901AA04238DF80760CDF8008000F07A
:1009F000B5FA02B0BDE8F08170B582B00446407926
:100A0000A379884298BF411E934298BF5A1ED0B224
:100A1000032805D8DFE800F009020608403104E0A9
:100A2000002102E0143100E054310A01E37A01F0C0
:100A3000700002F108056FF07702002B08BF6FF01D
:100A40007F0202EB000606F1040008BF0D018DF8DD
:100A50000400012000F080F8281D8DF80600012018
:100A60008DF8056000F078F8206821794FF47A76E7
:100A700001AA04238DF80750009600F06FFA02B027
:100A800070BD0000F0B583B004460A01E37A01F0BE
:100A9000F00002F10805002B14BF08300D01461CC0
:100AA00005308DF8080001206F1C00F055F8681D16
:100AB0008DF80A0001208DF8096000F04DF82068DB
:100AC00021798DF80B704FF47A7702AA04230097EE
:100AD00000F044FA03B0F0BD2DE9F04782B00A7887
:100AE0008AB382464E1E4FF47A780DF1040900BF96
:100AF00011019AF80B3022F00F0001F10807002BCA
:100B000014BF08301701451C05308DF80400012082
:100B10007C1C00F021F8781D8DF8060001208DF86E
:100B2000055000F019F8DAF800009AF804104A4667
:100B300004238DF80740CDF8008000F00FFAB2785A
:100B40000136002AD4D102B0BDE8F087704700001A
:100B5000102000F01BB80000B0B5044600F03CF9CE
:100B6000054640F20400C2F200000078611C18BF84
:100B7000044400BF00F030F9401BA042FAD3B0BDDE
:100B8000102818BF7047FFF747BD000040F214411E
:100B9000C4F201010A68024214BF08607047FFF7FF
:100BA000EFBF00002DE9F04F82B00E68002E00F07C
:100BB000038141F20042C4F20102042340F2004EDC
:100BC000904208BF03234FF6FF7CC4F2010E00934E
:100BD00000240123C1F2100C4FF0000A4FF000096D
:100BE00049E000BF012704F00C030F229A402BEAD2
:100BF000020207FA03F34FEA9A051A4346F8252042
:100C0000D1F804B040F20C455FEACB22DEF80820B0
:100C100054BF22EA080242EA0802C4F20105CEF8F3
:100C200008202A685FEA8B2354BF22EA080242EABE
:100C300008022A605FEA8B33DEF8042054BF22EA00
:100C4000080242EA08025FEACB33CEF80420DEF85D
:100C500000204FF0010354BF22EA080242EA0802D2
:100C6000CEF800200E680AF1010A36FA0AF204F101
:100C7000040400F0A18003FA0AF816EA080FF1D084
:100C80004E68664512DC122E56D8DFE806F0350BAA
:100C90004549555555555555555555555555554D28
:100CA000510000BFD1F80C9046E000BF4FF6FF7234
:100CB000C1F2210296420FDC0022C1F211029642DB
:100CC0001AD00022C1F21202964215D00022C1F2BF
:100CD0002102964210D02FE00022C1F22202964259
:100CE0000AD00022C1F23102964205D00022C1F2A0
:100CF0003202964220D100BF8A684AB1012A14BF4D
:100D0000C0F81480C0F810804FF0080914E000BF4C
:100D10004FF0040910E000BFCA6802F108090BE0B7
:100D20004FF0000908E000BFCA6802F1040903E0BF
:100D3000CA6802F10C0900BF22460646BAF1080F44
:100D400024BF203A043637680F25954027EA050569
:100D500009FA02F22A433260CA79D2067FF582AFDD
:100D600041F21803C4F202031A68AEF57E7642F02F
:100D700001021A601A6802F001020192019A2AF037
:100D8000030256F802B040F60002C4F2010290429B
:100D900010D040F60042C4F2010290423FF422AF6C
:100DA00041F20002C4F20102009F904208BF0227F4
:100DB00019E700BF002716E702B0BDE8F08F00007A
:100DC0008068084018BF012070470000002A08BF53
:100DD000090401617047000040F2AC30C2F200002B
:100DE0000068704770B5B8B3044690F83D0028B964
:100DF000002084F83C00204600F09AF9242084F872
:100E00003D002068016821F001010160016841F4A2
:100E100000410160016821F40041016000F052FBD3
:100E200048F28041C0F21E0140F60013D4F804E0FD
:100E300088424FF00001C0F23D0348F2A16C4FF030
:100E4000000238BF01219842C0F2010C38BF0122D4
:100E5000E64538BF0A460AB1012070BD4DF68361F0
:100E6000C4F21B31A0FB01122168950C4B684FF4B2
:100E7000967623F03F0343EA9243754344F6D356F4
:100E80004B60C1F262060B6AA5FB0656B50923F05A
:100E90003F03E64538BF950C6A1C1A430A62CA69CB
:100EA00048F2A0664CF6FF73C0F20106B64522EA8E
:100EB00003020BD801384FEA4E03B0FBF3F00130C8
:100EC0006FF31F30042898BF04201EE0A368013888
:100ED00063B119230EFB03F3B0FBF3F001306FF3A2
:100EE0001F3078B100F5804008E000BF0EEB4E03E4
:100EF000B0FBF3F001306FF31F3028B100F5004074
:100F000003E000BF012000E001201043C861086831
:100F1000D4E9072320F0C000104318430860886814
:100F200048F2FF3204F10C0690434CCE18431043B4
:100F3000A5698860C86820F0FF0030432843C86076
:100F4000086840F00100086000202021206484F837
:100F50003D10206384F83E0070BD00002DE9F04391
:100F600083B01E46174689460446FFF735FF94F8BE
:100F70003D10202920D10546206800BF81698907DE
:100F800016D5FFF729FF411B20681A29F6D381697E
:100F90008907F3D500202021206384F83D1084F8D0
:100FA0003E00216C41F02001216484F83C0003E004
:100FB00094F83C10012903D1022003B0BDE8F0836E
:100FC000012184F83C100168C90703D1016841F090
:100FD00001010160016840F2020821F40061016032
:100FE000212184F83D10102184F83E100021216455
:100FF00067626685618DC0F201082185A8F1021142
:10100000E162E16A0A9E11F5803F18BF01291DD1F6
:10101000016841F48071016020464FF00111002207
:101020003346009500F074FF50B120680068C00599
:1010300044BF4FF400702064012003B0BDE8F0838A
:101040002069B0F5804F07D1FE2015E00829DFD0D8
:10105000216B1229DCD0DFE7062000EAD9102168D5
:10106000F030086108F10601204632462B4601F0B7
:1010700039F80028E0D1FF20216800EA0900086162
:101080002046414632462B4601F02CF80028D3D1A9
:1010900000200290206841690291806902900298C4
:1010A00006E000BF204631462A4600F0D1FE18BBBC
:1010B000208D68B3204631462A4601F083F8D8B91E
:1010C000606A2168024612F8013B0B616262628D20
:1010D000013A6285228D531E23854F697F07E1D532
:1010E0001B04DFD0437802300B616062608D0138F1
:1010F0006085901E2085D5E7206C04289CD120684F
:10110000016841F400710160012003B0BDE8F08383
:101110002068016841F400710160202084F83D00DE
:10112000002084F83E0084F83C0003B0BDE8F08362
:1011300010B586B045F200410068C4F200010022FB
:101140008842049202D006B010BD00BF41F21804DC
:10115000C4F20204206840F008002060206800F01B
:10116000080001900198C0200290122003900320F3
:10117000059001F5384002A9FFF714FD606840F4BE
:1011800000106060606800F400100190019806B0E3
:1011900010BD000040F2040040F2AC31C2F2000089
:1011A000C2F2000100780A6810440860704700002D
:1011B00080B542F20000C4F20200016841F0100163
:1011C0000160032000F08EF8042000F005F800F024
:1011D00027F8002080BD000070B540F20406C2F27E
:1011E000000640F20C013278C2F200014FF47A732B
:1011F0000968B3FBF2F20446B1FBF2F1084600F0D5
:101200005FFD0F2C4FF0010508D838B94FF0FF30C3
:1012100021460022002500F039F87460284670BD90
:1012200082B041F21800C4F202000168022241F0CB
:1012300001010160016801F001010191019941681A
:1012400041F080514160406800F08050009000986B
:101250000420C4F20100016862F31A61016002B067
:1012600070470000002848BF7047C1B200F01F005F
:10127000012202FA00F04EF20012CEF2000242EA1F
:10128000D10121F0030108607047000010B54EF64F
:101290000C5CCEF2000CDCF80030C3F3022E8EF0B2
:1012A0000704042C28BF0424BEF103034FF0FF3EC3
:1012B0000EFA04F438BF0023A14399400EFA03F359
:1012C0009A43114300F00F0200F160430901043A10
:1012D00003F564436244002848BF02F10C0319700F
:1012E00010BD00004EF60C51CEF200010A684FF618
:1012F000FF031A4060F30A2242F0806040F0FD7064
:10130000086070472DE9F04381B0002800F0858027
:1013100042F20008C4F202080446D8F800000D4664
:1013200000F0070088420CD2D8F8000020F0070037
:101330002843C8F80000D8F8000000F00700A842D1
:101340006BD1206841F204098107C4F2020917D564
:10135000410705D5D9F8001041F4E061C9F8001043
:10136000010705D5D9F8001041F46051C9F8001003
:10137000D9F80010A26821F0F0011143C9F800105B
:10138000C00741D1D8F8000000F00700A8420CD9EE
:10139000D8F8000020F007002843C8F80000D8F86B
:1013A000000000F00700A84237D12068410707D5A8
:1013B000D9F80010E26821F4E0611143C9F8001087
:1013C000000708D5D9F80000216920F4605040EAF0
:1013D000C100C9F80000D9F8002002F00C0008286C
:1013E00041F20020C0F27A0050D143F2D343C2F35D
:1013F0008341C0F60003595CD2033BD440F6001091
:10140000C0F23D00484341E0606802280AD001284C
:101410002AD159F8041C890308D4012001B0BDE881
:10142000F08300BF59F8041C8901F6D5D9F80010E3
:1014300021F003010843C9F80000FFF7CDFC064680
:1014400041F28837D9F80000616800F00C00B0EB79
:10145000810F97D0FFF7C0FC801BB842F2D9032060
:1014600001B0BDE8F08300BF59F8041C8907D4D54A
:10147000DCE700BFD9F8002043F2D143C2F3404279
:10148000C0F600039A5C4843B0FBF2F0D9F80010B4
:1014900043F2B942C1F30311C0F60002515C40F2BD
:1014A0000C0220FA01F140F20800C2F200000068CC
:1014B000C2F200021160FFF78FFE002001B0BDE80C
:1014C000F083000040F20C0041F20401C2F200007F
:1014D000C4F202010068096843F2C942C1F3022163
:1014E000C0F60002515CC8407047000040F20C009A
:1014F00041F20401C2F20000C4F20201006809686E
:1015000043F2C942C1F3C221C0F60002515CC84097
:10151000704700002DE9F04182B0002868D00446F1
:10152000007841F20006C007C4F2020625D07068B8
:1015300000F00C0004281BD0706800F00C00082894
:1015400002D17068C00313D46068002800F068817D
:10155000B0F5A02F00F07C81B0F5803F00F07C81D9
:10156000306820F480303060306820F4802076E1EC
:101570003068800301D56068D0B32078800718D523
:10158000706810F00C0F07D0706800F00C0008288D
:101590006ED17068C0036BD43068800702D52069B3
:1015A000012825D13068616920F0F80040EAC100C7
:1015B0003060207800071FD42078400732D4E569D6
:1015C00095B1706800F00C00082840F08F80012D64
:1015D0000ED07068216A00F480328A4208D1616AB4
:1015E00000F47010884203D1002002B0BDE8F08101
:1015F000012002B0BDE8F081A069002862D000207F
:10160000C4F242200121C0F88014FFF7E5FB054633
:10161000706A800700F18C80FFF7DEFB401B022818
:10162000F6D92AE1F06910F0805808D1F06940F04D
:101630008050F061F06900F080500090009847F20F
:101640000007C4F200073868C00529D4386840F4A0
:1016500080703860FFF7C0FB054600BF3868C005E2
:101660001ED4FFF7B9FB401B6428F7D905E100BF82
:101670002069002840F20000C4F2422000F082807D
:1016800001210160FFF7A8FB054600BF3068800715
:101690003FF588AFFFF7A0FB401B0228F6D9ECE02E
:1016A000E068002800F08080052800F0978001287D
:1016B00000F09880306A20F001003062306A20F03B
:1016C000040092E00020C4F242200021C0F88014FF
:1016D000FFF782FB054600BF706A80077FF56CAF9D
:1016E000FFF77AFB401B0228F6D9C6E00027C4F2B8
:1016F000422700203866FFF76FFB022D05460BD10D
:101700003068800140F1BE80FFF766FB401B022875
:101710004FF00300F4D968E7306880017FF564AFCB
:10172000FFF75AFB401B02284FF00300F4D95CE797
:1017300040F20C00C2F20000006844F6D351C1F23E
:101740006201A0FB0101480A019000BF00BF01989F
:10175000411E002801913FF42FAF00BF0198411EA8
:10176000002801913FF428AF00BF0198411E0028D6
:1017700001913FF421AF00BF0198411E0028019163
:10178000E4D119E700210160FFF726FB054600BF01
:10179000306880077FF50DAFFFF71EFB401B022866
:1017A0004FF00300F4D920E7306A20F001003062E6
:1017B000306A20F004003062FFF70EFB054641F26C
:1017C000883700BF306A800720D5FFF705FB401B34
:1017D000B8424FF00300F5D907E700BF306A40F088
:1017E00004003062306A40F001003062FFF7F4FA22
:1017F000054641F2883700BF306A800706D4FFF7FC
:10180000EBFA401BB842F7D937E000BFB8F1000F40
:101810007FF4D5AEF06920F08050F061CFE600BFD4
:10182000306820F480303060306820F480203060F0
:10183000FFF7D2FA054600BF306880037FF59DAE02
:10184000FFF7CAFA401B64284FF00300F4D9CCE636
:10185000306840F480203060306840F48030306080
:10186000FFF7BAFA054600BF306880033FF585AE42
:10187000FFF7B2FA401B6428F6D9032002B0BDE896
:10188000F08100BF206AB0F5803F05D17168A26881
:1018900021F40031114371607168626A21F474119E
:1018A00011430843706001203866FFF795FA04463B
:1018B000306880013FF598AEFFF78EFA001B0228D2
:1018C0004FF00300F4D990E670B538B10446406A91
:1018D00030B10020206104F1140007E0012070BD48
:1018E0006068B0F5827F03D004F11C000021016024
:1018F0000026A66294F8510020B9204684F8506072
:1019000000F038F8022084F8510094E8071001F440
:101910008271036802F4044223F0400303602369E8
:1019200011440CF40062114403F002026369114493
:1019300003F00102A369E569114403F40072114444
:1019400005F03802256A114405F08002A56A1143AA
:1019500005F4005211430160042101EA1341416082
:10196000C16921F40061C1610120666584F85100FC
:10197000304670BD70B586B040F60044C4F2010434
:101980000068A4F5544100268842049602D006B0AF
:1019900070BD00BF41F21800C4F20200416802AD00
:1019A00041F480414160416801F480410191019915
:1019B000016841F0080101600068294600F0080054
:1019C000019001984FF420400290022003900320E0
:1019D00005902046FFF7E6F84FF48040CDE9020677
:1019E000204629460496FFF7DDF806B070BD0000DA
:1019F0002DE9F04381B0044690F85000012803D14E
:101A0000022001B0BDE8F08301201E4615460F46B6
:101A100084F85000FFF7E0F994F85110814601294D
:101A200012D06068B0F5827F40F0A480A0680028E2
:101A30004FF0020008BF042906D0002184F850109E
:101A400001B0BDE8F08300BF002F4FF0010018BFC8
:101A5000002DF2D0002EF0D094F85100002104287F
:101A60001CBF052084F851006165A563E687A68741
:101A70002763E6862068A6862164616401684906BA
:101A800003D4016841F0400101606168731EE2689F
:101A9000B1FA81F1B3FA83F3DDF8208049095B09DB
:101AA000B2F5006F41EA03016CD131B137F8021B86
:101AB000C1602763E08E0138E086012518F101003E
:101AC00031D101E0FFF788F9E08E18B9E08F0028E6
:101AD00000F0C0802068816889070CD5E18E51B183
:101AE000012D08D1216B002531F8022BC260216342
:101AF000E18E0139E1868168C907E3D0E18F0029D1
:101B0000E0D0C068A16B012521F8020BA163E08F32
:101B10000138E087D6E700BFFFF75EF9A0EB0900C8
:101B2000404580F0AB80E08E18B9E08F002800F0CF
:101B300091802068816889070CD5E18E51B1012D13
:101B400008D1216B002531F8022BC2602163E18EA0
:101B50000139E1868168C907DED0E18F0029DBD039
:101B6000C068A16B012521F8020BA163E08F013849
:101B7000E087D1E70220002184F8501001B0BDE8D1
:101B8000F08300BF39B139780173206B01302063D5
:101B9000E08E0138E086012518F1010032D101E024
:101BA000FFF71AF9E08E10B9E08F002852D02068B4
:101BB000816889070ED5E18E61B1012D0AD1216BB3
:101BC000002509780173216B206801312163E18EC2
:101BD0000139E1868168C907E2D0E18F0029DFD0B1
:101BE000C068A16B01250870A06B0130A063E08F75
:101BF0000138E087D4E700BFFFF7EEF8A0EB09005B
:101C000040453BD2E08E08B9E08F18B32068816868
:101C100089070ED5E18E61B1012D0AD1216B002516
:101C200009780173216B206801312163E18E01394C
:101C3000E1868168C907DFD0E18F0029DCD0C06868
:101C4000A16B01250870A06B0130A063E08F013803
:101C5000E087D1E72046802142464B4600F076FDE2
:101C6000B0B1606D40F0200060652020606501200B
:101C7000002184F8501001B0BDE8F083012084F801
:101C800051000320002184F8501001B0BDE8F0831A
:101C9000A06838B9002000902068C1680091806871
:101CA00000900098606D00284FF0010004BF84F898
:101CB00051000020002184F8501001B0BDE8F083ED
:101CC000411E0020B0EB116F1CBF012070474EF287
:101CD0001002CEF2000251604EF62351CEF2000106
:101CE000F0230B700721906011607047002804BF3B
:101CF0000120704710B5044690F8410028B9002033
:101D000084F84000204600F063F8242084F8410065
:101D10002068D4E90212C36823F40053C360036946
:101D200023F440531A430261D4E904231143C268E7
:101D3000194341F20C639A431143C1604169A2699E
:101D400021F44071114343F60002C4F201029042B3
:101D5000416103D0FFF7B6FB02E000BFFFF7C6FB0F
:101D60006268192148439100B0FBF1F048F21F511D
:101D7000C5F2EB11A0FB01235A094FF69C73C0F684
:101D8000FF7302FB0300322303EB0010A0FB0101F1
:101D9000F02303EA5113206803EB0212C1F343114D
:101DA00011448160016921F490410161416921F090
:101DB0002A014161C16841F40051C1600020202125
:101DC000606484F8411084F84210606310BD000024
:101DD00070B586B040F60004C4F20104006804F552
:101DE000405100268842049602D006B070BD00BF64
:101DF00041F21800C4F20200016802AD41F48041D2
:101E00000160016801F4804101910199016841F08C
:101E1000040101600068294600F004000190019867
:101E20004FF400700290022003900320059020469A
:101E3000FEF7B8FE4FF48060CDE902062046294641
:101E40000496FEF7AFFE06B070BD0000FEE700008E
:101E500070B50368044653F8140F400711D40E46BA
:101E6000481C29D086BB00BF1868400527D4FEF760
:101E7000B3FF236853F8140F400739D5186840079B
:101E8000F2D5002070BD00BF18684007F9D418686B
:101E9000400514D418684007F3D4186840050ED4E0
:101EA00018684007EDD41868400508D41868400742
:101EB0004FF0000048BF70BD18684005E4D56FF4CE
:101EC00080601860042014E0154603E053F8140FF6
:101ED0004007D6D418684005F1D4FEF77DFF401BBB
:101EE0002368B042F2D958694007EFD4202000E0BF
:101EF000202000212022216384F83D2084F83E1018
:101F0000226C10432064012084F83C1070BD000056
:101F10002DE9F041054600681E46144601F47F0293
:101F200001338FB242D0DDF81880B2F5803F40F027
:101F3000878040693840C01BB0FA80F04009A04259
:101F400040F0C8804EB924E040693840C01BB0FA68
:101F500080F04009A04240F0BD80FEF73DFFA0EBBD
:101F600008012868B142EFD941693940C91BB1FA6B
:101F700081F14909A142E7D19BE000BF40693840A7
:101F8000C01BB0FA80F04009A0424FF0000040F0C2
:101F9000A680FEF721FF286841693940C91BB1FAC4
:101FA00081F14909A142E9D183E000BFB2F5803F48
:101FB00024D100BF41693940C91BB1FA81F14909F7
:101FC000A14240F0878041693940C91BB1FA81F1D3
:101FD0004909A14240F07E8041693940C91BB1FAEC
:101FE00081F14909A14275D141693940C91BB1FA52
:101FF00081F14909A142DDD06CE000BF816939401F
:10200000C91BB1FA81F14909A14263D18169394003
:10201000C91BB1FA81F14909A1425BD181693940FB
:10202000C91BB1FA81F14909A14253D181693940F3
:10203000C91BB1FA81F14909A142DFD04AE000BFD2
:1020400080693840C01BB0FA80F04009A04241D1FD
:1020500046B923E080693840C01BB0FA80F04009DF
:10206000A0423BD1FEF7B8FEA0EB08012868B142C0
:10207000F0D981693940C91BB1FA81F14909A142FE
:10208000E8D116E080693840C01BB0FA80F0400902
:10209000A0424FF0000018BFBDE8F081FEF79CFEA3
:1020A000286881693940C91BB1FA81F14909A14207
:1020B000E8D100202021286385F83D1085F83E00F6
:1020C000296C41F02001296485F83C000120BDE81D
:1020D000F08100BF0020BDE8F08100BF0020BDE816
:1020E000F0810000F0B581B0044600681D464369E8
:1020F0008FB203EA0701B94202D1002001B0F0BD5E
:1021000041691646013201F4806125D0002940D191
:10211000CEB100BFFEF760FE411B2068B14203D97B
:1021200041693940B9424BD141693940B942E4D0A3
:1021300041694905EED52CE041693940B942DCD00E
:102140004169490525D4FEF747FE206841693940B9
:10215000B942F1D0202024E0D9B941693940B942CF
:10216000CBD04169490514D441693940B942C4D042
:10217000416949050DD441693940B942BDD0416931
:10218000490506D441693940B942B6D0416949058B
:10219000E3D5016841F4007101606FF48061416131
:1021A000042000212022216384F83D2084F83E1081
:1021B000226C1043206484F83C10012001B0F0BD73
:1021C0002020EEE770B50368044653F8140F0006AC
:1021D00011D40E46481C29D086BB00BF18684005A4
:1021E00027D4FEF7F9FD236853F8140F000639D5FC
:1021F00018680006F2D5002070BD00BF1868000600
:10220000F9D41868400514D418680006F3D4186887
:1022100040050ED418680006EDD41868400508D4AF
:10222000186800064FF0000048BF70BD18684005F0
:10223000E4D56FF480601860042014E0154603E0D4
:1022400053F8140F0006D6D418684005F1D4FEF7F1
:10225000C3FD401B2368B042F2D958690006EFD491
:10226000202000E0202000212022216384F83D204E
:1022700084F83E10226C10432064012084F83C1046
:1022800070BD0000F0B581B00F4605211C46164612
:10229000054600F0CBF800F0FB022846052100F0CF
:1022A000E3F928460A2100F0C1F840F080022846F0
:1022B0000A2100F0D9F94EB1013F00BF17F8012FF4
:1022C0002846092100F0D0F9013EF7D12846012126
:1022D000032200F0C9F9FF262846052100F0A6F8E0
:1022E000013E310602D010F00400F5D0284622212C
:1022F00000F09CF820702846212100F097F86070CB
:1023000001B0F0BD70B586B00D460D210722044620
:1023100000F0AAF9262028700DF10E0620460C21A7
:102320002A4601230095019600F0E6F84FF00206D8
:1023300010BBBDF80E0010281ED120460D21002232
:1023400000F092F942F29300288004AE20460C215E
:102350002A4602230095019600F0CEF8064658B9A9
:1023600028786978AA78EB78484050402979584015
:10237000401A18BF0120460050200DF11205ADF89B
:102380001200AB1C204629460222FFF77BFF0DF10D
:10239000160C20460C212A4604230095CDF804C0D3
:1023A00000F0AAF8304606B070BD000010B5C0E9D4
:1023B000001201210F220446038100F055F9204646
:1023C0002A218D2200F050F920462B213E2200F0D8
:1023D0004BF920462D211E2200F046F920462C21E3
:1023E000002200F041F920462621702200F03CF93D
:1023F00020461521402200F037F9204611213D22C8
:1024000000F032F92046142100F010F8800718BFC0
:1024100010BD2046142100F009F840F003022046C8
:102420001421BDE8104000F01FB90000B0B582B023
:10243000044622898023406843EA41051146002270
:10244000FEF7C4FC20688DF8055001688A68920781
:1024500009D48A6892075CBF8A685FEA827202D4F4
:102460008A689207F2D50A250DF1050101AA012318
:102470000095FFF7BDFA206801688A68120609D541
:102480008A68120644BF8A685FEA026202D58A68D7
:102490001206F2D400228DF807208A68920709D428
:1024A0008A6892075CBF8A685FEA827202D48A688F
:1024B0009207F2D50A250DF107010DF1060201235D
:1024C0000095FFF795FA206800688168090609D52C
:1024D0008168090644BF81685FEA016102D58168AD
:1024E0000906F2D4606821899DF806500122FEF7A2
:1024F0006DFC284602B0B0BD2DE9F04F81B01E46FC
:1025000091468B460C29044606D0BBF10E0F07D12D
:1025100011274FF0120806E031274FF0770802E04C
:1025200001274FF0000808F180022046022100F048
:102530009BF820460421FFF779FF00F07F02204638
:10254000042100F091F820460A21FFF76FFF40F0C8
:10255000800220460A2100F087F82046012100224F
:1025600000F082F856B1A9F1010500BF15F8012F5E
:102570002046092100F078F8013EF7D120460121DC
:102580005A4600F071F8BBF10C0F09D120460D211D
:10259000FFF74CFF40F0800220460D2100F064F868
:1025A000DDE90A9A4FF4FA6520460421FFF73EFF61
:1025B000013D290418D006460742F5D020460D21DA
:1025C000FFF734FF00F07F0220460D2100F04CF8A9
:1025D00020460621FFF72AFF10F01B0F14D002251A
:1025E000284601B0BDE8F08F20460D21FFF71EFF01
:1025F00000F07F0220460D2100F036F80225284623
:1026000001B0BDE8F08F00BF08EA0600BBF10C0F77
:1026100000F00105E4D120460A21FFF707FF064636
:1026200020460C21FFF702FF10F0070040EAC60029
:10263000A0F1080008BFF000102E374628BF102771
:10264000002E08BF0127002FAAF80000C8D0A9F16A
:10265000010600BF20460921FFF7E8FE013F06F80A
:10266000010FF7D1BCE7000070B582B004461546F3
:1026700022897E23406803EA410611460022FEF7C4
:10268000A5FB20688DF8056001688A68920709D467
:102690008A6892075CBF8A685FEA827202D48A689D
:1026A0009207F2D50A260DF1050101AA0123009631
:1026B000FFF79EF9206800688168090609D58168DE
:1026C000090644BF81685FEA016102D58168090695
:1026D000F2D40120FEF740FA20688DF80750016817
:1026E0008A68920709D48A6892075CBF8A685FEAA1
:1026F000827202D48A689207F2D50A260DF1070188
:102700000DF1060201230096FFF772F920680068B8
:102710008168090609D58168090644BF81685FEAB6
:10272000016102D581680906F2D40120FEF714FA8E
:10273000606821890122FEF749FB02B070BD0000EC
:10274000FEE70000FEE70000704700002DE9F041C1
:1027500082B01E4690460D460446FEF73DFB301AF9
:1027600000EB0807FEF738FB40F20C01C2F2000153
:102770000968C1F3CB317943019121688A682A4005
:10278000AA4227D1064618F101001FD0FEF724FB0C
:10279000801BB84222D2019801990028A1F10101C1
:1027A00001912168896808BF074601EA0500A8422F
:1027B000ECD00FE088682840A8420BD188682840F8
:1027C000A84207D188682840A84203D188682840D9
:1027D000A842EFD0002002B0BDE8F081D4E90001AA
:1027E0004268B1F5827F22F0E00242600AD1A1681E
:1027F000B1F5004F02D0B1F5806F03D1016821F02F
:1028000040010160A16AB1F5005F07D1016821F4C0
:1028100000510160016841F400510160012084F819
:102820005100002084F85000032002B0BDE8F08180
:1028300070470000FEF7AEBC704700002DE9F04F76
:1028400085B040F27004C2F2000422780D468A423C
:10285000064606D0201DFDF73BFF0220FEF77CF95F
:10286000257004342046002100224FF00009FEF7B5
:10287000C3F876A12046FEF72FF920460821002252
:10288000FEF7BAF873A12046FEF726F920460F217D
:102890000022FEF7B1F843F2F141C0F600012046F4
:1028A000FEF71AF906EB450B43F20756C0F6000691
:1028B0000DF10A0A0DF103080EE000BF5FFA89F27C
:1028C00020460021FEF798F820466DA1FEF704F996
:1028D000B9F1030F00F0B6800BEB4905A87809F1B8
:1028E000010901380428E9D8DFE800F004203C5849
:1028F000880000BF5FFA89F7204600213A46FEF7BC
:102900007BF820465CA1FEF7E7F8204609213A460D
:10291000FEF772F8EA7850463146FDF759FC20463A
:102920005146FEF7D9F8E878C82152E05FFA89F7F6
:10293000204600213A46FEF75FF820464CA1FEF7FC
:10294000CBF8204609213A46FEF756F8EA78504679
:102950003146FDF73DFC20465146FEF7BDF8E878CC
:10296000642136E05FFA89F7204600213A46FEF7F7
:1029700043F820463CA1FEF7AFF8204609213A462D
:10298000FEF73AF8EA7850463146FDF721FC20463A
:102990005146FEF7A1F8E87832211AE05FFA89F78C
:1029A000204600213A46FEF727F820462DA1FEF7E3
:1029B00093F8204609213A46FEF71EF8EA78504679
:1029C0003146FDF705FC20465146FEF785F8E878CC
:1029D000FA2100FB01F520460E213A46FEF70CF8DD
:1029E000404631462A46FDF7F3FB20464146FEF7B6
:1029F00073F8B9F1030F7FF46FAF23E057465FFA26
:102A000089FA204600215246FDF7F6FF204613A121
:102A1000FEF762F8204609215246FDF7EDFFEA78FD
:102A200038463146FDF7D4FB20463946FEF754F8C8
:102A3000E8780E2100EB8000850020465246BA4619
:102A4000CCE700BF05B0BDE8F08F00BF4954454D4D
:102A5000000000004E554D42455200004452494E80
:102A60004B00000042414700504F5246554D450033
:102A700053554741520000004D494C4B00000000A7
:102A80002020202020202020202020202020202046
:102A90002000000070B584B00230002401E000BFC7
:102AA00002300278052AFBD8C821DFE802F00F05C2
:102AB000090B0D03142100BF427801FB0244EFE72C
:102AC0006421F9E73221F7E7FA21F5E740F27000D7
:102AD000C2F20000051D284604210022FDF78CFFEC
:102AE00043F2F141C0F600012846FDF7F5FF284604
:102AF00004210122FDF780FF43F207510DF1060684
:102B0000C0F6000130462246FDF762FB28463146FA
:102B1000FDF7E2FF284602210222FDF76DFF43F296
:102B2000F741C0F600012846FDF7D6FF28460221EE
:102B30000322FDF761FF43F20051C0F60001284671
:102B4000FDF7CAFF3220FEF707F804B070BD0000A1
:102B500080B540F27000C2F200000430FDF7B8FD0D
:102B60000220BDE88040FDF7F7BF00002DE9F04FDF
:102B700083B04FF0000940F280028DF80B908DF881
:102B80000A908DF809908DF808908DF807908DF8CF
:102B90000690CDF80090C1F80090C1F80490C1F8FB
:102BA0000890C1F80C90C1F81090C2F2000212789F
:102BB000002A00F0CF804AF228264AF2292E49F650
:102BC000A97BC0F2A606C0F2A60EC0F2BE0B4FF063
:102BD000000C4FF001094FF0010815E09DF8064088
:102BE000002C4BD09DF8064001EB4404657801357C
:102BF00065700CF1010C94454FF0000938BF4FF09F
:102C00000109624500F0A68050F82CA0B24511DD04
:102C1000F245E3D0DA4521D04BF20A54C0F2DF048A
:102C2000A24540F097809DF80840002C3ED09DF8CA
:102C30000840D9E747F67B73C0F230039A4515D0B8
:102C400042F27514C0F25A04A24540F083809DF808
:102C50000740DCB39DF80740C6E700BF9DF8094078
:102C6000002C47D09DF80940BEE700BF9DF80A4000
:102C7000002C53D09DF80A40B6E700BF5FFA88F4F5
:102C800001EB44056F78052601F8146049F6A97B2D
:102C90004AF228267C1CC0F2BE0BC0F2A6066C705D
:102CA0008DF8068008F10108A3E700BF5FFA88F4F9
:102CB00001EB44056F78032301F814307C1C6C7021
:102CC0008DF8088008F1010893E700BF5FFA88F4E7
:102CD00001EB44056F78042301F814304AF2292EE1
:102CE0007C1CC0F2A60E6C708DF8078008F10108FC
:102CF0007FE700BF5FFA88F401EB44056F78022696
:102D000001F814604AF228267C1CC0F2A6066C70FA
:102D10008DF8098008F101086BE700BF5FFA88F4BD
:102D200001EB44077D78012601F8146049F6A97B80
:102D30004AF228264AF2292E6C1CC0F2BE0BC0F2C1
:102D4000A606C0F2A60E7C708DF80A8008F1010874
:102D50004FE700BF09F0010003B0BDE8F08F0000AD
:102D600082780A70C2784A700079887070470000D3
:102D700070B5054640F27000C2F20000041D204606
:102D800000210122FDF738FE43F2E346C0F60006BB
:102D900020463146FDF7A0FE204601210122FDF725
:102DA0002BFE20463146FDF797FE204600210222E9
:102DB000FDF722FE20463146FDF78EFE204601211A
:102DC0000222FDF719FE20463146FDF785FE20461A
:102DD00000210322FDF710FE20463146FDF77CFE60
:102DE000204601210322FDF707FE20463146FDF76C
:102DF00073FE204600212A46FDF7FEFD20467E2177
:102E0000BDE87040FDF73EBE70B582B0054640F2A9
:102E10007000C2F20000041D204604210022042696
:102E2000FDF7EAFD43F2E541C0F600012046FDF75B
:102E300053FE2046E5B100210122FDF7DDFD01A989
:102E40002846FFF78DFF019841F23421884249F668
:102E5000B071CFF6AD1108BF0326884208BF022625
:102E6000022E2BD0042E2BD0032E2DD131A128E001
:102E700007210122FDF7C0FD34A12046FDF72CFEFD
:102E8000204602210222FDF7B7FD43F2F741C0F6CA
:102E900000012046FDF720FE204602210322FDF717
:102EA000ABFD43F20051C0F600012046FDF714FED1
:102EB000322002B0BDE87040FDF74EBE11A100E027
:102EC00016A12046FDF708FE204602210222FDF74A
:102ED00093FD43F2F741C0F600012046FDF7FCFDEB
:102EE000204602210322FDF787FD43F20051C0F680
:102EF00000012046FDF7F0FD3220FDF72DFE02B067
:102F000070BD00BF4749414D203130252020202091
:102F10002020202020202020202000004B484F4E41
:102F20004720484F50204C452020202020202020A2
:102F3000202000004749414D20313025204D494C8B
:102F40004B202020202020202020000051554554D7
:102F50002051520080B582B0014640F27000C2F2AA
:102F600000004FF0040C04304E221423CDF800C0B2
:102F7000FDF7DAFB02B080BD2DE9F0470D460446AF
:102F8000FDF72AFF40F28006C2F20006F168401AFF
:102F9000B0F5FA7F08D9FDF71FFFF06006F11000C9
:102FA0002946FFF7AFF918B10220BDE8F08700BF4E
:102FB000287996F800806988B8F1000F41EA00414D
:102FC0002ED020684FF0000C88424FF000033BD019
:102FD000C646C8F10009A8F1010A0025AA4545F036
:102FE000010224D004EB850043688B421CD009EB1E
:102FF00005039A1C1AD082688A421BD0DA1C45F05D
:10300000030214D0C7688F4218D01A1D05F10405B9
:1030100016D000698842E1D12A462B4612E000BF53
:103020004FF0000E2CE000BF6B1C0BE0AA1C00232D
:1030300008E000BF45F00202134603E0EB1C01E08C
:1030400000232A4642451BD2D9B2A8F1010088428A
:1030500044F821C048D042DDD8434044A8EB0102E7
:1030600010F00300A2F1020224D004EB81035B689C
:10307000012844F8213001F1010309D1194619E072
:1030800044F82E100120404430700020BDE8F08745
:1030900004EB83077F68022801F1020044F82370E3
:1030A00002D1014606E000BF04EB80035B680331F8
:1030B00044F82030032A12D3C84304EB8101404472
:1030C000103100BF0D6811E98C00A1F1100C41F81E
:1030D000045C043801F110018CE88C00F2D104EB9F
:1030E0008800002140F8041CFF204044307000207C
:1030F000BDE8F08740F2800CC2F2000C13460A468D
:103100000146CCF804000CF11000CCF80820FFF7C1
:103110004DB9000010B540F27000C2F20000041D6D
:10312000204608210022FDF767FC13A12046FDF789
:10313000D3FC204602210122FDF75EFC10A12046AF
:10314000FDF7CAFC204602210222FDF755FC0FA123
:103150002046FDF7C1FC204602210322FDF74CFC6E
:1031600043F2E541C0F600012046FDF7B5FC05201D
:10317000BDE81040FDF7F0BC4D454E550000000085
:103180005448414E4820544F414E0000484F412082
:10319000444F4E0080B5014640F28000C2F200006C
:1031A0001030FFF7AFF8002818BF012080BD0000E5
:1031B000FEE7000090B0FDF7FBFF00240120CDE901
:1031C0000B44CDE909440A9010200B904FF4601095
:1031D00002250F9006A8CDE907440695CDE90D54C8
:1031E000FEF798F920B1EFF3108072B6FEE700BF4A
:1031F0004FF480600F26CDE9040401A80221CDE937
:1032000001650394FEF77EF820B1EFF3108072B6EB
:10321000FEE700BF002741F218000997C4F2020040
:10322000016840F6000A41F0040101600168C4F23F
:10323000010A01F004010191019901680AF5806910
:1032400041F00801016000684FF4805100F008006F
:1032500001900198484600224FF48054FDF7B6FDD6
:10326000CDE9066706AE0125504631460895FDF7C3
:1032700099FC102006900020C1F22100CDE907073B
:1032800050463146FDF78EFC06A8B0C002200990DA
:1032900048463146FDF786FC0A200A2100220A260C
:1032A000FDF7F4FF0A20FDF7DDFF40F27010AAF5EC
:1032B0003441C2F2000048F2A0624FF48043C0F2F1
:1032C000010280E88600C0E90373C0E90577C0E920
:1032D0000777FDF787FD28B1EFF3108072B600BFC6
:1032E000FEE700BF40F2C410AAF55041C2F2000050
:1032F0004FF400734FF4827280E88600C0E90377D0
:10330000C0E90573C0E90777C0E90977C662FEF72F
:10331000DBFA28B1EFF3108072B600BFFEE700BF02
:1033200040F2A007C2F200070AF54051384640F8C3
:10333000241F4FF4E1314FF000080C22C0E90118BE
:10334000C0E90388C0E90528C0F81C80FEF7CEFC60
:1033500020B1EFF3108072B6FEE700BF40F2C41058
:10336000C2F2000049464FF48052FFF7C3FE40F21C
:103370007010C2F20000FFF7EDFD07F10C0051469E
:1033800001224FF00109FDF7EDF807F11800514651
:1033900002224FF0020AFDF7E5F840F2000640F283
:1033A0001C2540F20C1BC2F200063C1DC2F20005B7
:1033B000C2F2000B0AE000BF28462146FFF7DCFD01
:1033C000002865D039785846FFF738FA3178707898
:1033D000884203D07170FFF7BBFB307801380328B7
:1033E000F4D8DFE800F00503354500BFE4E700BF8F
:1033F00028462146FFF7C0FD18B928465946FFF771
:10340000B5FBFFF787FEB078FFF7B2FC78780128AC
:1034100012D1B0780138C0B2022809D840F2032195
:10342000C000C0F2040121FA00F087F8018030707A
:1034300086F802A087F8008028462146FFF79CFD09
:103440000028C3D128465946FFF790FBBEE700BFCE
:103450005846FFF71FFBB078FFF78AFC7878012801
:10346000B4D186F80290A7F8008087F80280ADE713
:103470002046FFF78FFE28B1F87818B90020FFF733
:10348000C3FCA3E72046FFF7BFFC87F803909DE746
:1034900028465946FFF76AFB94E730380A2801D2DC
:1034A0000120704700207047040000080000000061
:1034B00000000002000100001000000000000000F9
:1034C00000010203040607080900000000010203CE
:1034D00004010202030405060708090A0B0C0D0E7D
:1034E0000F101020004D41204749414D20474941D0
:1034F00000544F54414C00584143204E48414E0027
:1035000048555920424F002575000000303500080D
:1035100000000020100000002801000840350008CD
:1035200010000020A0090000440100080000000075
:103530000101010001000000100000000024F4005F
:04000005080000ED02
:00000001FF
